{
  "_format": "hh-sol-artifact-1",
  "contractName": "Marketplace",
  "sourceName": "contracts/Marketplace.sol",
  "abi": [
    {
      "inputs": [
        {
          "internalType": "address",
          "name": "registry",
          "type": "address"
        }
      ],
      "stateMutability": "nonpayable",
      "type": "constructor"
    },
    {
      "inputs": [],
      "name": "ArgumentsAndValueMismatch",
      "type": "error"
    },
    {
      "inputs": [],
      "name": "AuctionDoesNotExist",
      "type": "error"
    },
    {
      "inputs": [],
      "name": "AuctionIsNotActive",
      "type": "error"
    },
    {
      "inputs": [],
      "name": "AuctionIsNotEndOrCancelled",
      "type": "error"
    },
    {
      "inputs": [],
      "name": "AuctionMustBeActiveOrPending",
      "type": "error"
    },
    {
      "inputs": [],
      "name": "BidIsNotHighEnough",
      "type": "error"
    },
    {
      "inputs": [],
      "name": "BidLoweThanReservePrice",
      "type": "error"
    },
    {
      "inputs": [],
      "name": "CanOnlySellOneNFT",
      "type": "error"
    },
    {
      "inputs": [],
      "name": "ContractIsDeprecated",
      "type": "error"
    },
    {
      "inputs": [],
      "name": "ContractMustSupportERC2981",
      "type": "error"
    },
    {
      "inputs": [],
      "name": "CurrencyIsNotSupported",
      "type": "error"
    },
    {
      "inputs": [],
      "name": "EndTimeMustBeGreaterThanStartTime",
      "type": "error"
    },
    {
      "inputs": [],
      "name": "InputValueAndPriceMismatch",
      "type": "error"
    },
    {
      "inputs": [],
      "name": "NFTContractIsNotApproved",
      "type": "error"
    },
    {
      "inputs": [],
      "name": "NotEnoughBalance",
      "type": "error"
    },
    {
      "inputs": [],
      "name": "NotEnoughStock",
      "type": "error"
    },
    {
      "inputs": [],
      "name": "NothingToClaim",
      "type": "error"
    },
    {
      "inputs": [],
      "name": "OnlyNFTOwnerCanClaim",
      "type": "error"
    },
    {
      "inputs": [],
      "name": "OnlyOwnerOrAuctionCreator",
      "type": "error"
    },
    {
      "inputs": [],
      "name": "OnlyOwnerOrSaleCreator",
      "type": "error"
    },
    {
      "inputs": [],
      "name": "SaleDoesNotExist",
      "type": "error"
    },
    {
      "inputs": [],
      "name": "SaleIsNotActive",
      "type": "error"
    },
    {
      "inputs": [],
      "name": "SaleIsNotClosed",
      "type": "error"
    },
    {
      "inputs": [],
      "name": "SaleMustBeActiveOrPending",
      "type": "error"
    },
    {
      "inputs": [],
      "name": "StockAlreadySoldOrClaimed",
      "type": "error"
    },
    {
      "inputs": [],
      "name": "UnexpectedError",
      "type": "error"
    },
    {
      "inputs": [],
      "name": "ZeroAddressNotAllowed",
      "type": "error"
    },
    {
      "anonymous": false,
      "inputs": [
        {
          "indexed": true,
          "internalType": "uint256",
          "name": "auctionId",
          "type": "uint256"
        }
      ],
      "name": "AuctionCancelled",
      "type": "event"
    },
    {
      "anonymous": false,
      "inputs": [
        {
          "indexed": true,
          "internalType": "address",
          "name": "accountOf",
          "type": "address"
        },
        {
          "indexed": true,
          "internalType": "address",
          "name": "tokenAddress",
          "type": "address"
        },
        {
          "indexed": true,
          "internalType": "uint256",
          "name": "newBalance",
          "type": "uint256"
        }
      ],
      "name": "BalanceUpdated",
      "type": "event"
    },
    {
      "anonymous": false,
      "inputs": [
        {
          "indexed": true,
          "internalType": "uint256",
          "name": "auctionId",
          "type": "uint256"
        },
        {
          "indexed": false,
          "internalType": "uint256",
          "name": "totalAmount",
          "type": "uint256"
        }
      ],
      "name": "BidPlaced",
      "type": "event"
    },
    {
      "anonymous": false,
      "inputs": [
        {
          "indexed": true,
          "internalType": "uint256",
          "name": "auctionId",
          "type": "uint256"
        },
        {
          "indexed": true,
          "internalType": "address",
          "name": "claimer",
          "type": "address"
        },
        {
          "indexed": true,
          "internalType": "address",
          "name": "recipient",
          "type": "address"
        },
        {
          "indexed": false,
          "internalType": "uint256",
          "name": "amount",
          "type": "uint256"
        }
      ],
      "name": "ClaimAuctionNFT",
      "type": "event"
    },
    {
      "anonymous": false,
      "inputs": [
        {
          "indexed": true,
          "internalType": "address",
          "name": "accountOf",
          "type": "address"
        },
        {
          "indexed": true,
          "internalType": "address",
          "name": "tokenAddress",
          "type": "address"
        },
        {
          "indexed": true,
          "internalType": "uint256",
          "name": "newBalance",
          "type": "uint256"
        }
      ],
      "name": "ClaimFunds",
      "type": "event"
    },
    {
      "anonymous": false,
      "inputs": [
        {
          "indexed": true,
          "internalType": "uint256",
          "name": "id",
          "type": "uint256"
        },
        {
          "indexed": true,
          "internalType": "address",
          "name": "owner",
          "type": "address"
        },
        {
          "indexed": true,
          "internalType": "uint256",
          "name": "amount",
          "type": "uint256"
        }
      ],
      "name": "ClaimSaleNFTs",
      "type": "event"
    },
    {
      "anonymous": false,
      "inputs": [
        {
          "indexed": true,
          "internalType": "uint256",
          "name": "auctionId",
          "type": "uint256"
        },
        {
          "components": [
            {
              "internalType": "uint128",
              "name": "id",
              "type": "uint128"
            },
            {
              "internalType": "uint128",
              "name": "nftId",
              "type": "uint128"
            },
            {
              "internalType": "bool",
              "name": "isERC721",
              "type": "bool"
            },
            {
              "internalType": "address",
              "name": "nftAddress",
              "type": "address"
            },
            {
              "internalType": "address",
              "name": "owner",
              "type": "address"
            },
            {
              "internalType": "address",
              "name": "currency",
              "type": "address"
            },
            {
              "internalType": "uint256",
              "name": "startTime",
              "type": "uint256"
            },
            {
              "internalType": "uint256",
              "name": "endTime",
              "type": "uint256"
            },
            {
              "internalType": "uint256",
              "name": "reservePrice",
              "type": "uint256"
            }
          ],
          "indexed": false,
          "internalType": "struct Marketplace.AuctionInfo",
          "name": "newAuction",
          "type": "tuple"
        }
      ],
      "name": "NewAuction",
      "type": "event"
    },
    {
      "anonymous": false,
      "inputs": [
        {
          "indexed": true,
          "internalType": "address",
          "name": "previousOwner",
          "type": "address"
        },
        {
          "indexed": true,
          "internalType": "address",
          "name": "newOwner",
          "type": "address"
        }
      ],
      "name": "OwnershipTransferred",
      "type": "event"
    },
    {
      "anonymous": false,
      "inputs": [
        {
          "indexed": true,
          "internalType": "uint256",
          "name": "saleId",
          "type": "uint256"
        },
        {
          "indexed": true,
          "internalType": "address",
          "name": "purchaser",
          "type": "address"
        },
        {
          "indexed": true,
          "internalType": "address",
          "name": "recipient",
          "type": "address"
        }
      ],
      "name": "Purchase",
      "type": "event"
    },
    {
      "anonymous": false,
      "inputs": [
        {
          "indexed": true,
          "internalType": "uint256",
          "name": "saleId",
          "type": "uint256"
        }
      ],
      "name": "SaleCancelled",
      "type": "event"
    },
    {
      "anonymous": false,
      "inputs": [
        {
          "indexed": true,
          "internalType": "uint256",
          "name": "id",
          "type": "uint256"
        },
        {
          "indexed": true,
          "internalType": "address",
          "name": "nftAddress",
          "type": "address"
        },
        {
          "indexed": true,
          "internalType": "uint256",
          "name": "nftID",
          "type": "uint256"
        }
      ],
      "name": "SaleCreated",
      "type": "event"
    },
    {
      "inputs": [],
      "name": "auctionIdCounter",
      "outputs": [
        {
          "internalType": "uint128",
          "name": "",
          "type": "uint128"
        }
      ],
      "stateMutability": "view",
      "type": "function"
    },
    {
      "inputs": [
        {
          "internalType": "uint256",
          "name": "",
          "type": "uint256"
        }
      ],
      "name": "auctions",
      "outputs": [
        {
          "internalType": "uint128",
          "name": "id",
          "type": "uint128"
        },
        {
          "internalType": "uint128",
          "name": "nftId",
          "type": "uint128"
        },
        {
          "internalType": "bool",
          "name": "isERC721",
          "type": "bool"
        },
        {
          "internalType": "address",
          "name": "nftAddress",
          "type": "address"
        },
        {
          "internalType": "address",
          "name": "owner",
          "type": "address"
        },
        {
          "internalType": "address",
          "name": "currency",
          "type": "address"
        },
        {
          "internalType": "uint256",
          "name": "startTime",
          "type": "uint256"
        },
        {
          "internalType": "uint256",
          "name": "endTime",
          "type": "uint256"
        },
        {
          "internalType": "uint256",
          "name": "reservePrice",
          "type": "uint256"
        }
      ],
      "stateMutability": "view",
      "type": "function"
    },
    {
      "inputs": [
        {
          "internalType": "uint256",
          "name": "auctionId",
          "type": "uint256"
        },
        {
          "internalType": "uint256",
          "name": "amountFromBalance",
          "type": "uint256"
        },
        {
          "internalType": "uint256",
          "name": "externalFunds",
          "type": "uint256"
        }
      ],
      "name": "bid",
      "outputs": [
        {
          "internalType": "bool",
          "name": "",
          "type": "bool"
        }
      ],
      "stateMutability": "payable",
      "type": "function"
    },
    {
      "inputs": [
        {
          "internalType": "uint256",
          "name": "",
          "type": "uint256"
        },
        {
          "internalType": "address",
          "name": "",
          "type": "address"
        }
      ],
      "name": "bids",
      "outputs": [
        {
          "internalType": "uint256",
          "name": "amount",
          "type": "uint256"
        },
        {
          "internalType": "uint256",
          "name": "timestamp",
          "type": "uint256"
        }
      ],
      "stateMutability": "view",
      "type": "function"
    },
    {
      "inputs": [
        {
          "internalType": "uint256",
          "name": "saleId",
          "type": "uint256"
        },
        {
          "internalType": "address",
          "name": "recipient",
          "type": "address"
        },
        {
          "internalType": "uint256",
          "name": "amountToBuy",
          "type": "uint256"
        },
        {
          "internalType": "uint256",
          "name": "amountFromBalance",
          "type": "uint256"
        }
      ],
      "name": "buy",
      "outputs": [
        {
          "internalType": "bool",
          "name": "",
          "type": "bool"
        }
      ],
      "stateMutability": "payable",
      "type": "function"
    },
    {
      "inputs": [
        {
          "internalType": "uint256",
          "name": "auctionId",
          "type": "uint256"
        }
      ],
      "name": "cancelAuction",
      "outputs": [],
      "stateMutability": "nonpayable",
      "type": "function"
    },
    {
      "inputs": [
        {
          "internalType": "uint256",
          "name": "saleId",
          "type": "uint256"
        }
      ],
      "name": "cancelSale",
      "outputs": [],
      "stateMutability": "nonpayable",
      "type": "function"
    },
    {
      "inputs": [
        {
          "internalType": "uint256",
          "name": "",
          "type": "uint256"
        }
      ],
      "name": "cancelledAuction",
      "outputs": [
        {
          "internalType": "bool",
          "name": "",
          "type": "bool"
        }
      ],
      "stateMutability": "view",
      "type": "function"
    },
    {
      "inputs": [
        {
          "internalType": "uint256",
          "name": "",
          "type": "uint256"
        }
      ],
      "name": "cancelledSale",
      "outputs": [
        {
          "internalType": "bool",
          "name": "",
          "type": "bool"
        }
      ],
      "stateMutability": "view",
      "type": "function"
    },
    {
      "inputs": [
        {
          "internalType": "address",
          "name": "tokenAddress",
          "type": "address"
        }
      ],
      "name": "claimFunds",
      "outputs": [],
      "stateMutability": "nonpayable",
      "type": "function"
    },
    {
      "inputs": [
        {
          "internalType": "uint256",
          "name": "saleId",
          "type": "uint256"
        }
      ],
      "name": "claimSaleNfts",
      "outputs": [],
      "stateMutability": "nonpayable",
      "type": "function"
    },
    {
      "inputs": [
        {
          "internalType": "address",
          "name": "",
          "type": "address"
        },
        {
          "internalType": "address",
          "name": "",
          "type": "address"
        }
      ],
      "name": "claimableFunds",
      "outputs": [
        {
          "internalType": "uint256",
          "name": "",
          "type": "uint256"
        }
      ],
      "stateMutability": "view",
      "type": "function"
    },
    {
      "inputs": [
        {
          "internalType": "uint256",
          "name": "",
          "type": "uint256"
        }
      ],
      "name": "claimed",
      "outputs": [
        {
          "internalType": "bool",
          "name": "",
          "type": "bool"
        }
      ],
      "stateMutability": "view",
      "type": "function"
    },
    {
      "inputs": [
        {
          "internalType": "bool",
          "name": "isERC721",
          "type": "bool"
        },
        {
          "internalType": "address",
          "name": "nftAddress",
          "type": "address"
        },
        {
          "internalType": "uint128",
          "name": "nftId",
          "type": "uint128"
        },
        {
          "internalType": "uint256",
          "name": "startTime",
          "type": "uint256"
        },
        {
          "internalType": "uint256",
          "name": "endTime",
          "type": "uint256"
        },
        {
          "internalType": "uint256",
          "name": "reservePrice",
          "type": "uint256"
        },
        {
          "internalType": "address",
          "name": "currency",
          "type": "address"
        }
      ],
      "name": "createAuction",
      "outputs": [
        {
          "internalType": "uint128",
          "name": "auctionId",
          "type": "uint128"
        }
      ],
      "stateMutability": "nonpayable",
      "type": "function"
    },
    {
      "inputs": [
        {
          "internalType": "bool",
          "name": "isERC721",
          "type": "bool"
        },
        {
          "internalType": "address",
          "name": "nftAddress",
          "type": "address"
        },
        {
          "internalType": "uint128",
          "name": "nftId",
          "type": "uint128"
        },
        {
          "internalType": "uint256",
          "name": "amount",
          "type": "uint256"
        },
        {
          "internalType": "uint256",
          "name": "startTime",
          "type": "uint256"
        },
        {
          "internalType": "uint256",
          "name": "endTime",
          "type": "uint256"
        },
        {
          "internalType": "uint256",
          "name": "price",
          "type": "uint256"
        },
        {
          "internalType": "address",
          "name": "currency",
          "type": "address"
        }
      ],
      "name": "createSale",
      "outputs": [
        {
          "internalType": "uint256",
          "name": "saleId",
          "type": "uint256"
        }
      ],
      "stateMutability": "nonpayable",
      "type": "function"
    },
    {
      "inputs": [
        {
          "internalType": "address",
          "name": "",
          "type": "address"
        }
      ],
      "name": "escrow",
      "outputs": [
        {
          "internalType": "uint256",
          "name": "",
          "type": "uint256"
        }
      ],
      "stateMutability": "view",
      "type": "function"
    },
    {
      "inputs": [
        {
          "internalType": "uint256",
          "name": "auctionId",
          "type": "uint256"
        }
      ],
      "name": "getAuctionStatus",
      "outputs": [
        {
          "internalType": "bytes32",
          "name": "",
          "type": "bytes32"
        }
      ],
      "stateMutability": "view",
      "type": "function"
    },
    {
      "inputs": [
        {
          "internalType": "uint256",
          "name": "pageNo",
          "type": "uint256"
        },
        {
          "internalType": "uint256",
          "name": "pageSize",
          "type": "uint256"
        }
      ],
      "name": "getAuctions",
      "outputs": [
        {
          "components": [
            {
              "internalType": "uint128",
              "name": "id",
              "type": "uint128"
            },
            {
              "internalType": "uint128",
              "name": "nftId",
              "type": "uint128"
            },
            {
              "internalType": "bool",
              "name": "isERC721",
              "type": "bool"
            },
            {
              "internalType": "address",
              "name": "nftAddress",
              "type": "address"
            },
            {
              "internalType": "address",
              "name": "owner",
              "type": "address"
            },
            {
              "internalType": "address",
              "name": "currency",
              "type": "address"
            },
            {
              "internalType": "uint256",
              "name": "startTime",
              "type": "uint256"
            },
            {
              "internalType": "uint256",
              "name": "endTime",
              "type": "uint256"
            },
            {
              "internalType": "uint256",
              "name": "reservePrice",
              "type": "uint256"
            }
          ],
          "internalType": "struct Marketplace.AuctionInfo[]",
          "name": "",
          "type": "tuple[]"
        }
      ],
      "stateMutability": "view",
      "type": "function"
    },
    {
      "inputs": [
        {
          "internalType": "uint256",
          "name": "saleId",
          "type": "uint256"
        }
      ],
      "name": "getSaleStatus",
      "outputs": [
        {
          "internalType": "bytes32",
          "name": "",
          "type": "bytes32"
        }
      ],
      "stateMutability": "view",
      "type": "function"
    },
    {
      "inputs": [
        {
          "internalType": "uint256",
          "name": "pageNo",
          "type": "uint256"
        },
        {
          "internalType": "uint256",
          "name": "pageSize",
          "type": "uint256"
        }
      ],
      "name": "getSales",
      "outputs": [
        {
          "components": [
            {
              "internalType": "uint128",
              "name": "nftId",
              "type": "uint128"
            },
            {
              "internalType": "bool",
              "name": "isERC721",
              "type": "bool"
            },
            {
              "internalType": "address",
              "name": "nftAddress",
              "type": "address"
            },
            {
              "internalType": "address",
              "name": "owner",
              "type": "address"
            },
            {
              "internalType": "address",
              "name": "currency",
              "type": "address"
            },
            {
              "internalType": "uint256",
              "name": "amount",
              "type": "uint256"
            },
            {
              "internalType": "uint256",
              "name": "purchased",
              "type": "uint256"
            },
            {
              "internalType": "uint256",
              "name": "startTime",
              "type": "uint256"
            },
            {
              "internalType": "uint256",
              "name": "endTime",
              "type": "uint256"
            },
            {
              "internalType": "uint256",
              "name": "price",
              "type": "uint256"
            }
          ],
          "internalType": "struct Marketplace.SaleInfo[]",
          "name": "",
          "type": "tuple[]"
        }
      ],
      "stateMutability": "view",
      "type": "function"
    },
    {
      "inputs": [
        {
          "internalType": "uint256",
          "name": "",
          "type": "uint256"
        }
      ],
      "name": "highestBidder",
      "outputs": [
        {
          "internalType": "address",
          "name": "",
          "type": "address"
        }
      ],
      "stateMutability": "view",
      "type": "function"
    },
    {
      "inputs": [
        {
          "internalType": "address",
          "name": "",
          "type": "address"
        },
        {
          "internalType": "address",
          "name": "",
          "type": "address"
        },
        {
          "internalType": "uint256[]",
          "name": "",
          "type": "uint256[]"
        },
        {
          "internalType": "uint256[]",
          "name": "",
          "type": "uint256[]"
        },
        {
          "internalType": "bytes",
          "name": "",
          "type": "bytes"
        }
      ],
      "name": "onERC1155BatchReceived",
      "outputs": [
        {
          "internalType": "bytes4",
          "name": "",
          "type": "bytes4"
        }
      ],
      "stateMutability": "nonpayable",
      "type": "function"
    },
    {
      "inputs": [
        {
          "internalType": "address",
          "name": "",
          "type": "address"
        },
        {
          "internalType": "address",
          "name": "",
          "type": "address"
        },
        {
          "internalType": "uint256",
          "name": "",
          "type": "uint256"
        },
        {
          "internalType": "uint256",
          "name": "",
          "type": "uint256"
        },
        {
          "internalType": "bytes",
          "name": "",
          "type": "bytes"
        }
      ],
      "name": "onERC1155Received",
      "outputs": [
        {
          "internalType": "bytes4",
          "name": "",
          "type": "bytes4"
        }
      ],
      "stateMutability": "nonpayable",
      "type": "function"
    },
    {
      "inputs": [
        {
          "internalType": "address",
          "name": "",
          "type": "address"
        },
        {
          "internalType": "address",
          "name": "",
          "type": "address"
        },
        {
          "internalType": "uint256",
          "name": "",
          "type": "uint256"
        },
        {
          "internalType": "bytes",
          "name": "",
          "type": "bytes"
        }
      ],
      "name": "onERC721Received",
      "outputs": [
        {
          "internalType": "bytes4",
          "name": "",
          "type": "bytes4"
        }
      ],
      "stateMutability": "nonpayable",
      "type": "function"
    },
    {
      "inputs": [],
      "name": "owner",
      "outputs": [
        {
          "internalType": "address",
          "name": "",
          "type": "address"
        }
      ],
      "stateMutability": "view",
      "type": "function"
    },
    {
      "inputs": [
        {
          "internalType": "uint256",
          "name": "",
          "type": "uint256"
        },
        {
          "internalType": "address",
          "name": "",
          "type": "address"
        }
      ],
      "name": "purchased",
      "outputs": [
        {
          "internalType": "uint256",
          "name": "",
          "type": "uint256"
        }
      ],
      "stateMutability": "view",
      "type": "function"
    },
    {
      "inputs": [],
      "name": "renounceOwnership",
      "outputs": [],
      "stateMutability": "nonpayable",
      "type": "function"
    },
    {
      "inputs": [
        {
          "internalType": "uint256",
          "name": "auctionId",
          "type": "uint256"
        }
      ],
      "name": "resolveAuction",
      "outputs": [],
      "stateMutability": "nonpayable",
      "type": "function"
    },
    {
      "inputs": [],
      "name": "saleIdCounter",
      "outputs": [
        {
          "internalType": "uint128",
          "name": "",
          "type": "uint128"
        }
      ],
      "stateMutability": "view",
      "type": "function"
    },
    {
      "inputs": [
        {
          "internalType": "uint256",
          "name": "",
          "type": "uint256"
        }
      ],
      "name": "sales",
      "outputs": [
        {
          "internalType": "uint128",
          "name": "nftId",
          "type": "uint128"
        },
        {
          "internalType": "bool",
          "name": "isERC721",
          "type": "bool"
        },
        {
          "internalType": "address",
          "name": "nftAddress",
          "type": "address"
        },
        {
          "internalType": "address",
          "name": "owner",
          "type": "address"
        },
        {
          "internalType": "address",
          "name": "currency",
          "type": "address"
        },
        {
          "internalType": "uint256",
          "name": "amount",
          "type": "uint256"
        },
        {
          "internalType": "uint256",
          "name": "purchased",
          "type": "uint256"
        },
        {
          "internalType": "uint256",
          "name": "startTime",
          "type": "uint256"
        },
        {
          "internalType": "uint256",
          "name": "endTime",
          "type": "uint256"
        },
        {
          "internalType": "uint256",
          "name": "price",
          "type": "uint256"
        }
      ],
      "stateMutability": "view",
      "type": "function"
    },
    {
      "inputs": [
        {
          "internalType": "bytes4",
          "name": "interfaceId",
          "type": "bytes4"
        }
      ],
      "name": "supportsInterface",
      "outputs": [
        {
          "internalType": "bool",
          "name": "",
          "type": "bool"
        }
      ],
      "stateMutability": "view",
      "type": "function"
    },
    {
      "inputs": [
        {
          "internalType": "address",
          "name": "newOwner",
          "type": "address"
        }
      ],
      "name": "transferOwnership",
      "outputs": [],
      "stateMutability": "nonpayable",
      "type": "function"
    }
  ],
  "bytecode": "0x60a06040523480156200001157600080fd5b5060405162003b9b38038062003b9b8339810160408190526200003491620000a1565b6200003f3362000051565b6001600160a01b0316608052620000d3565b600080546001600160a01b038381166001600160a01b0319831681178455604051919092169283917f8be0079c531659141344cd1fd0a4f28419497f9722a3daafe3b4186f6b6457e09190a35050565b600060208284031215620000b457600080fd5b81516001600160a01b0381168114620000cc57600080fd5b9392505050565b608051613a9e620000fd6000396000818161148e015281816129b40152612d900152613a9e6000f3fe6080604052600436106101e35760003560e01c80637a06f84911610102578063c7e1533811610095578063de0794ef11610064578063de0794ef146107ff578063f23a6e6114610826578063f2fde38b14610852578063f56bdc231461087257600080fd5b8063c7e153381461074a578063ceb6a22f14610782578063d254d2c6146107af578063dbe7e3bd146107cf57600080fd5b8063b2337ce8116100d1578063b2337ce8146105e6578063b5f522f714610616578063bc197c81146106fe578063bd94b0051461072a57600080fd5b80637a06f849146105685780637c1239c7146105885780638da5cb5b146105a857806396b5a755146105c657600080fd5b8063571a26a01161017a578063706910ff11610149578063706910ff14610500578063712f35fb14610513578063715018a6146105335780637765c52c1461054857600080fd5b8063571a26a01461038a57806357d3c7c31461046d5780635e09aa27146104a8578063693d0df2146104e057600080fd5b8063281c6000116101b6578063281c6000146102a55780632ac9bf09146102d55780633f1ffcec146102e8578063451df52e1461033c57600080fd5b806301ffc9a7146101e8578063150b7a021461021d578063199de1e2146102565780631a92777914610278575b600080fd5b3480156101f457600080fd5b5061020861020336600461317e565b6108aa565b60405190151581526020015b60405180910390f35b34801561022957600080fd5b5061023d61023836600461327b565b6108e1565b6040516001600160e01b03199091168152602001610214565b34801561026257600080fd5b506102766102713660046132e7565b6108f2565b005b34801561028457600080fd5b50610298610293366004613300565b610b71565b6040516102149190613322565b3480156102b157600080fd5b506102086102c03660046132e7565b60056020526000908152604090205460ff1681565b6102086102e33660046133e0565b610d5e565b3480156102f457600080fd5b5061032761030336600461340c565b600a6020908152600092835260408084209091529082529020805460019091015482565b60408051928352602083019190915201610214565b34801561034857600080fd5b506103726103573660046132e7565b6007602052600090815260409020546001600160a01b031681565b6040516001600160a01b039091168152602001610214565b34801561039657600080fd5b5061040c6103a53660046132e7565b600360208190526000918252604090912080546001820154600283015493830154600484015460058501546006909501546001600160801b0380861697600160801b909604169560ff8516956001600160a01b036101009096048616959081169416929189565b604080516001600160801b039a8b1681529990981660208a0152951515968801969096526001600160a01b03938416606088015291831660808701529190911660a085015260c084015260e083019190915261010082015261012001610214565b34801561047957600080fd5b5061049a61048836600461343c565b60086020526000908152604090205481565b604051908152602001610214565b3480156104b457600080fd5b506001546104c8906001600160801b031681565b6040516001600160801b039091168152602001610214565b3480156104ec57600080fd5b506102766104fb36600461343c565b6110d9565b61020861050e366004613459565b611236565b34801561051f57600080fd5b5061027661052e3660046132e7565b6117ea565b34801561053f57600080fd5b50610276611a07565b34801561055457600080fd5b5061049a6105633660046132e7565b611a1b565b34801561057457600080fd5b506104c86105833660046134c0565b611b40565b34801561059457600080fd5b5061049a6105a3366004613539565b611ef8565b3480156105b457600080fd5b506000546001600160a01b0316610372565b3480156105d257600080fd5b506102766105e13660046132e7565b612267565b3480156105f257600080fd5b506102086106013660046132e7565b60046020526000908152604090205460ff1681565b34801561062257600080fd5b5061069b6106313660046132e7565b60026020819052600091825260409091208054600182015492820154600383015460048401546005850154600686015460078701546008909701546001600160801b03871698600160801b90970460ff16976001600160a01b03978816979687169690951694908a565b604080516001600160801b03909b168b5298151560208b01526001600160a01b03978816988a0198909852948616606089015294909216608087015260a086015260c085015260e084019190915261010083015261012082015261014001610214565b34801561070a57600080fd5b5061023d610719366004613631565b63bc197c8160e01b95945050505050565b34801561073657600080fd5b506102766107453660046132e7565b612429565b34801561075657600080fd5b5061049a61076536600461340c565b600960209081526000928352604080842090915290825290205481565b34801561078e57600080fd5b506107a261079d366004613300565b61250f565b60405161021491906136df565b3480156107bb57600080fd5b5061049a6107ca3660046132e7565b6126e1565b3480156107db57600080fd5b506102086107ea3660046132e7565b60066020526000908152604090205460ff1681565b34801561080b57600080fd5b506001546104c890600160801b90046001600160801b031681565b34801561083257600080fd5b5061023d61084136600461378b565b63f23a6e6160e01b95945050505050565b34801561085e57600080fd5b5061027661086d36600461343c565b61285f565b34801561087e57600080fd5b5061049a61088d3660046137f4565b600b60209081526000928352604080842090915290825290205481565b60006001600160e01b03198216630271189760e51b14806108db57506301ffc9a760e01b6001600160e01b03198316145b92915050565b630a85bd0160e11b5b949350505050565b60006108fd82611a1b565b9050806810d05390d15313115160ba1b1415801561092357508064115391115160da1b14155b15610941576040516324df06a960e11b815260040160405180910390fd5b600082815260036020908152604080832080546002909101546007845282852054600a85528386206001600160a01b03918216808852955292852054600160801b9092046001600160801b031694921692913384146109a057816109a3565b60005b6000888152600360205260408120600101549192506101009091046001600160a01b03169082156109e0576109d98985846128dd565b50836109e3565b50845b60008981526003602052604090206001015460ff16610a6657604051637921219560e11b81526001600160a01b0383169063f242432a90610a2f90309085908c90600190600401613822565b600060405180830381600087803b158015610a4957600080fd5b505af1158015610a5d573d6000803e3d6000fd5b50505050610add565b604051635c46a7ef60e11b81523060048201526001600160a01b03828116602483015260448201899052608060648301526000608483015283169063b88d4fde9060a401600060405180830381600087803b158015610ac457600080fd5b505af1158015610ad8573d6000803e3d6000fd5b505050505b6000898152600660209081526040808320805460ff191660011790556003825280832054600a83528184206001600160a01b038a811686529352928190205490519184169233926001600160801b03909116917f4cfccb49c100bd1236b476cedfd66efc0d8b8817e6276dda17150ce64fe9055d91610b5e91815260200190565b60405180910390a4505050505050505050565b600180546060916001600160801b03909116906000908490610b939087613870565b610b9d9190613887565b90506000610bab85836138a6565b9050828210610bf0576040805160008082526020820190925290610be5565b610bd26130b9565b815260200190600190039081610bca5790505b5093505050506108db565b82811115610bfb5750815b6000610c078383613870565b905060008167ffffffffffffffff811115610c2457610c246131c4565b604051908082528060200260200182016040528015610c5d57816020015b610c4a6130b9565b815260200190600190039081610c425790505b509050835b83811015610d525760026000610c798360016138a6565b8152602080820192909252604090810160002081516101408101835281546001600160801b0381168252600160801b900460ff1615159381019390935260018101546001600160a01b039081169284019290925260028101548216606084015260038101549091166080830152600481015460a0830152600581015460c0830152600681015460e083015260078101546101008301526008015461012082015282610d248784613870565b81518110610d3457610d346138be565b60200260200101819052508080610d4a906138d4565b915050610c62565b50979650505050505050565b6000610d6984611a1b565b6541435449564560d01b14610d91576040516311836dc560e01b815260040160405180910390fd5b6000848152600a60209081526040808320338452909152812054610db584866138a6565b610dbf91906138a6565b6000868152600a6020908152604080832060078352818420546001600160a01b031684529091529020549091508111610e0b576040516314f2a19960e31b815260040160405180910390fd5b600085815260036020526040902060060154811015610e3d576040516343214feb60e11b815260040160405180910390fd5b600085815260036020818152604080842090920154338452600b82528284206001600160a01b039091168085529152912054851115610e8f5760405163569d45cf60e11b815260040160405180910390fd5b6001600160a01b03811673aaaaaaaaaaaaaaaaaaaaaaaaaaaaaaaaaaaaaaaa14610ecf5780610ec96001600160a01b038216333088612c21565b50610eef565b833414610eef57604051631ad8bb2960e01b815260040160405180910390fd5b600086815260076020908152604080832054600a83528184206001600160a01b03909116808552925290912054610f268185613870565b6001600160a01b03841660009081526008602052604081208054909190610f4e9084906138a6565b90915550506001600160a01b0382163314610ff2576000888152600a602090815260408083206001600160a01b038087168552908352818420849055600b8352818420908716845290915281208054839290610fab9084906138a6565b90915550506001600160a01b038083166000818152600b602090815260408083209488168084529490915280822054905190939291600080516020613a4983398151915291a45b861561105757336000908152600b602090815260408083206001600160a01b03871684529091528120805489929061102b908490613870565b909155505060405187906001600160a01b038516903390600080516020613a4983398151915290600090a45b6000888152600a6020908152604080832033808552908352818420888155426001909101558b8452600783529281902080546001600160a01b031916909317909255905185815289917f0fc69407039e8ba8cdd517e2a4cae9dd19697b0a500ff37a2425c59ebc649b31910160405180910390a2506001979650505050505050565b336000908152600b602090815260408083206001600160a01b03851684529091528120549081900361111e576040516312d37ee560e31b815260040160405180910390fd5b6001600160a01b03821673aaaaaaaaaaaaaaaaaaaaaaaaaaaaaaaaaaaaaaaa1461117857336000818152600b602090815260408083206001600160a01b03871680855292528220919091556111739183612c92565b6111fa565b336000818152600b602090815260408083206001600160a01b03871684529091528082208290555190919083908381818185875af1925050503d80600081146111dd576040519150601f19603f3d011682016040523d82523d6000602084013e6111e2565b606091505b50509050806111f8576040513d806000833e8082fd5b505b60405181906001600160a01b0384169033907fb4cdb061e5be7c8ebaa37f4b5ddd49f0ab59dd6c1d477f80245e14a29b85f44a90600090a45050565b6000611241856126e1565b6541435449564560d01b146112685760405162ecac0160e01b815260040160405180910390fd5b8361127f576040516342bcdf7f60e11b8152600481fd5b60008581526002602081815260409283902083516101408101855281546001600160801b0381168252600160801b900460ff1615159281019290925260018101546001600160a01b0390811694830194909452918201548316606082015260038201549092166080830152600481015460a08301819052600582015460c08401819052600683015460e0850152600783015461010085015260089092015461012084015261132d9190613870565b84111561134d576040516306c67f0360e31b815260040160405180910390fd5b6080810151604082015161012083015182919061136a9088613887565b6040516370a0823160e01b81523360048201526001600160a01b038416906370a0823190602401602060405180830381865afa1580156113ae573d6000803e3d6000fd5b505050506040513d601f19601f820116820180604052508101906113d291906138ed565b10156113f15760405163569d45cf60e11b815260040160405180910390fd5b600080826001600160a01b0316632a55205a87600001518861012001518c6114199190613887565b6040516001600160e01b031960e085901b1681526001600160801b03909216600483015260248201526044016040805180830381865afa158015611461573d6000803e3d6000fd5b505050506040513d601f19601f820116820180604052508101906114859190613906565b915091506000807f00000000000000000000000000000000000000000000000000000000000000006001600160a01b031663e44f5c508961012001518d6114cc9190613887565b6040518263ffffffff1660e01b81526004016114ea91815260200190565b6040805180830381865afa158015611506573d6000803e3d6000fd5b505050506040513d601f19601f8201168201806040525081019061152a9190613906565b915091508a600260008f8152602001908152602001600020600501600082825401925050819055508a600960008f81526020019081526020016000206000336001600160a01b03166001600160a01b031681526020019081526020016000206000828254019250508190555073aaaaaaaaaaaaaaaaaaaaaaaaaaaaaaaaaaaaaaaa6001600160a01b0316876001600160a01b03161461168757836001600160a01b031688606001516001600160a01b0316141580156115f157506001600160a01b03841615155b1561165257611638338960600151858461160b91906138a6565b8b61012001518f61161c9190613887565b6116269190613870565b6001600160a01b038a16929190612c21565b61164d6001600160a01b038716338686612c21565b61166d565b61166d338960600151838b61012001518f61161c9190613887565b6116826001600160a01b038716338484612c21565b6116c2565b898861012001518c6116999190613887565b6116a39190613870565b34146116c2576040516328ddf2f760e01b815260040160405180910390fd5b876020015161173857846001600160a01b031663f242432a308e8b600001518f6040518563ffffffff1660e01b81526004016117019493929190613934565b600060405180830381600087803b15801561171b57600080fd5b505af115801561172f573d6000803e3d6000fd5b5050505061179f565b846001600160a01b031663b88d4fde308e8b600001516040518463ffffffff1660e01b815260040161176c93929190613975565b600060405180830381600087803b15801561178657600080fd5b505af115801561179a573d6000803e3d6000fd5b505050505b6040516001600160a01b038d169033908f907f2d9abaed896ece5f9f4f4484ce756b21c297e5aa6739114910fc097c750f27a590600090a45060019c9b505050505050505050505050565b60006117f5826126e1565b9050806810d05390d15313115160ba1b1415801561181b57508064115391115160da1b14155b156118395760405163d47bf35d60e01b815260040160405180910390fd5b6000828152600260208190526040909120600181015481546004830154600584015493909401546001600160a01b03928316946001600160801b039092169391921633811461189b57604051630e20a39360e31b815260040160405180910390fd5b8282036118bb57604051633ac38e7d60e11b815260040160405180910390fd5b60006118c78385613870565b60008981526002602052604090206005810186905554909150600160801b900460ff1661195757604051637921219560e11b81526001600160a01b0387169063f242432a9061192090309086908a908790600401613822565b600060405180830381600087803b15801561193a57600080fd5b505af115801561194e573d6000803e3d6000fd5b505050506119ce565b604051635c46a7ef60e11b81523060048201526001600160a01b03838116602483015260448201879052608060648301526000608483015287169063b88d4fde9060a401600060405180830381600087803b1580156119b557600080fd5b505af11580156119c9573d6000803e3d6000fd5b505050505b604051819033908a907f549c383085c9acaba3d26a9c577b9cef834a76b82794c2b8bfbff47ca495d7d490600090a45050505050505050565b611a0f612cc7565b611a196000612d21565b565b600154600090600160801b90046001600160801b0316821180611a3c575081155b15611a5a5760405163e6759c6760e01b815260040160405180910390fd5b60008281526005602052604090205460ff1615611a8457506810d05390d15313115160ba1b919050565b60008281526006602052604090205460ff1615611ab457506e115391115108098810d31052535151608a1b919050565b6000828152600360205260409020600481015460059091015442821115611ae857506650454e44494e4760c81b9392505050565b814210158015611af757508042105b15611b0e57506541435449564560d01b9392505050565b80421115611b27575064115391115160da1b9392505050565b6040516316351c4b60e21b815260040160405180910390fd5b60008688611bb257604051637921219560e11b81526001600160a01b0382169063f242432a90611b7b90339030908c90600190600401613934565b600060405180830381600087803b158015611b9557600080fd5b505af1158015611ba9573d6000803e3d6000fd5b50505050611c15565b604051635c46a7ef60e11b81526001600160a01b0382169063b88d4fde90611be290339030908c90600401613975565b600060405180830381600087803b158015611bfc57600080fd5b505af1158015611c10573d6000803e3d6000fd5b505050505b6001601081819054906101000a90046001600160801b031660010191906101000a8154816001600160801b0302191690836001600160801b03160217905550600160109054906101000a90046001600160801b03169150604051806101200160405280836001600160801b03168152602001886001600160801b031681526020018a15158152602001896001600160a01b03168152602001336001600160a01b03168152602001846001600160a01b031681526020018781526020018681526020018581525060036000846001600160801b0316815260200190815260200160002060008201518160000160006101000a8154816001600160801b0302191690836001600160801b0316021790555060208201518160000160106101000a8154816001600160801b0302191690836001600160801b0316021790555060408201518160010160006101000a81548160ff02191690831515021790555060608201518160010160016101000a8154816001600160a01b0302191690836001600160a01b0316021790555060808201518160020160006101000a8154816001600160a01b0302191690836001600160a01b0316021790555060a08201518160030160006101000a8154816001600160a01b0302191690836001600160a01b0316021790555060c0820151816004015560e082015181600501556101008201518160060155905050816001600160801b03167f79b799d0b553b6bf90c621da9414550c1434e012bbbda9afa3acf3ff2f1eae9c60036000856001600160801b03168152602001908152602001600020604051611ee4919081546001600160801b0381168252608090811c6020830152600183015460ff81161515604084015260081c6001600160a01b039081166060840152600284015481169183019190915260038301541660a0820152600482015460c0820152600582015460e08201526006909101546101008201526101200190565b60405180910390a250979650505050505050565b6000611f0688868685612d71565b888015611f14575085600114155b15611f325760405163be28143960e01b815260040160405180910390fd5b8789611fcb57604051637921219560e11b81523360048201523060248201526001600160801b03891660448201526064810188905260a06084820152600260a482015261060f60f31b60c48201526001600160a01b0382169063f242432a9060e401600060405180830381600087803b158015611fae57600080fd5b505af1158015611fc2573d6000803e3d6000fd5b5050505061202e565b604051635c46a7ef60e11b81526001600160a01b0382169063b88d4fde90611ffb90339030908d90600401613975565b600060405180830381600087803b15801561201557600080fd5b505af1158015612029573d6000803e3d6000fd5b505050505b6001600081819054906101000a90046001600160801b031660010191906101000a8154816001600160801b0302191690836001600160801b03160217905550600160009054906101000a90046001600160801b03166001600160801b03169150604051806101400160405280896001600160801b031681526020018b151581526020018a6001600160a01b03168152602001336001600160a01b03168152602001846001600160a01b0316815260200188815260200160008152602001878152602001868152602001858152506002600084815260200190815260200160002060008201518160000160006101000a8154816001600160801b0302191690836001600160801b0316021790555060208201518160000160106101000a81548160ff02191690831515021790555060408201518160010160006101000a8154816001600160a01b0302191690836001600160a01b0316021790555060608201518160020160006101000a8154816001600160a01b0302191690836001600160a01b0316021790555060808201518160030160006101000a8154816001600160a01b0302191690836001600160a01b0316021790555060a0820151816004015560c0820151816005015560e0820151816006015561010082015181600701556101208201518160080155905050876001600160801b0316896001600160a01b0316837fa29262303591d48ce94646a46b652916ce782073349bb5dc261ac4c5237d939760405160405180910390a45098975050505050505050565b6000818152600360205260409020600201546001600160a01b0316331480159061229c57506000546001600160a01b03163314155b156122ba57604051636c86c99f60e11b815260040160405180910390fd5b60006122c582611a1b565b9050806541435449564560d01b141580156122ea5750806650454e44494e4760c81b14155b1561230857604051630c0f6b1960e01b815260040160405180910390fd5b6000828152600560209081526040808320805460ff19166001179055600380835281842001546007835281842054600a84528285206001600160a01b0391821680875290855283862054919092168086526008909452918420805493949193839290612375908490613870565b90915550506001600160a01b038083166000908152600b60209081526040808320938716835292905290812080548392906123b19084906138a6565b90915550506001600160a01b038083166000818152600b602090815260408083209488168084529490915280822054905190939291600080516020613a4983398151915291a460405185907f2809c7e17bf978fbc7194c0a694b638c4215e9140cacc6c38ca36010b45697df90600090a25050505050565b600081815260026020819052604090912001546001600160a01b0316331480159061245f57506000546001600160a01b03163314155b1561247d5760405163bbc5adc560e01b815260040160405180910390fd5b6000612488826126e1565b9050806541435449564560d01b141580156124ad5750806650454e44494e4760c81b14155b156124cb5760405163b9df81c760e01b815260040160405180910390fd5b600082815260046020526040808220805460ff191660011790555183917f2c56893f6f6026d19bd17b7d05c9f15c522de1ae2b1c3a825f91a73c799321f291a25050565b60018054606091600160801b9091046001600160801b03169060009084906125379087613870565b6125419190613887565b9050600061254f85836138a6565b9050828210612593576040805160008082526020820190925290610be5565b612576613132565b81526020019060019003908161256e5790505093505050506108db565b8281111561259e5750815b60006125aa8383613870565b905060008167ffffffffffffffff8111156125c7576125c76131c4565b60405190808252806020026020018201604052801561260057816020015b6125ed613132565b8152602001906001900390816125e55790505b509050835b83811015610d525760008181526003602081815260409283902083516101208101855281546001600160801b038082168352600160801b9091041692810192909252600181015460ff81161515948301949094526001600160a01b0361010094859004811660608401526002820154811660808401529281015490921660a0820152600482015460c0820152600582015460e082015260069091015491810191909152826126b38784613870565b815181106126c3576126c36138be565b602002602001018190525080806126d9906138d4565b915050612605565b6001546000906001600160801b03168211806126fb575081155b1561271957604051631a6cb34560e01b815260040160405180910390fd5b60008281526004602052604090205460ff161561274357506810d05390d15313115160ba1b919050565b60008281526002602081815260409283902083516101408101855281546001600160801b0381168252600160801b900460ff1615159281019290925260018101546001600160a01b0390811694830194909452918201548316606082015260038201549092166080830152600481015460a0830152600581015460c0830152600681015460e0830181905260078201546101008401526008909101546101208301524210156127fe57506650454e44494e4760c81b92915050565b8061010001514210801561281957508060a001518160c00151105b1561282f57506541435449564560d01b92915050565b8061010001514210158061284a57508060a001518160c00151145b15611b27575064115391115160da1b92915050565b612867612cc7565b6001600160a01b0381166128d15760405162461bcd60e51b815260206004820152602660248201527f4f776e61626c653a206e6577206f776e657220697320746865207a65726f206160448201526564647265737360d01b60648201526084015b60405180910390fd5b6128da81612d21565b50565b6000838152600360208181526040808420909201546001600160a01b03168084526008909152908220805491928592612917908490613870565b909155505060008481526003602052604080822054905163152a902d60e11b8152600160801b9091046001600160801b031660048201526024810185905281906001600160a01b03851690632a55205a906044016040805180830381865afa158015612987573d6000803e3d6000fd5b505050506040513d601f19601f820116820180604052508101906129ab9190613906565b915091506000807f00000000000000000000000000000000000000000000000000000000000000006001600160a01b031663e44f5c50886040518263ffffffff1660e01b8152600401612a0091815260200190565b6040805180830381865afa158015612a1c573d6000803e3d6000fd5b505050506040513d601f19601f82011682018060405250810190612a409190613906565b6001600160a01b038083166000908152600b60209081526040808320938b16835292905290812080549a8390039a9395509193508392612a819084906138a6565b90915550506001600160a01b038083166000818152600b60209081526040808320948a168084529490915280822054905190939291600080516020613a4983398151915291a46000888152600360205260409020600201546001600160a01b03858116911614612b6e576001600160a01b038085166000908152600b60209081526040808320938916835292905290812080549885900398859290612b279084906138a6565b90915550506001600160a01b038085166000818152600b60209081526040808320948a168084529490915280822054905190939291600080516020613a4983398151915291a45b600088815260036020818152604080842060028101546001600160a01b039081168652600b84528286209190940154909316845291905281208054899290612bb79084906138a6565b9091555050600088815260036020818152604080842060028101546001600160a01b03908116808752600b855283872092860154909116808752918452828620548e875294909352905192939092600080516020613a498339815191529190a45050505050505050565b6040516001600160a01b0380851660248301528316604482015260648101829052612c8c9085906323b872dd60e01b906084015b60408051601f198184030181529190526020810180516001600160e01b03166001600160e01b031990931692909217909152612ec4565b50505050565b6040516001600160a01b038316602482015260448101829052612cc290849063a9059cbb60e01b90606401612c55565b505050565b6000546001600160a01b03163314611a195760405162461bcd60e51b815260206004820181905260248201527f4f776e61626c653a2063616c6c6572206973206e6f7420746865206f776e657260448201526064016128c8565b600080546001600160a01b038381166001600160a01b0319831681178455604051919092169283917f8be0079c531659141344cd1fd0a4f28419497f9722a3daafe3b4186f6b6457e09190a35050565b6040516315e5d47360e01b81526001600160a01b0382811660048301527f000000000000000000000000000000000000000000000000000000000000000016906315e5d47390602401602060405180830381865afa158015612dd7573d6000803e3d6000fd5b505050506040513d601f19601f82011682018060405250810190612dfb91906139b0565b612e185760405163c650342f60e01b815260040160405180910390fd5b6040516301ffc9a760e01b815263152a902d60e11b60048201526001600160a01b038516906301ffc9a790602401602060405180830381865afa158015612e63573d6000803e3d6000fd5b505050506040513d601f19601f82011682018060405250810190612e8791906139b0565b612ea457604051630510c9f160e21b815260040160405180910390fd5b828211612c8c576040516373b9355360e01b815260040160405180910390fd5b6000612f19826040518060400160405280602081526020017f5361666545524332303a206c6f772d6c6576656c2063616c6c206661696c6564815250856001600160a01b0316612f969092919063ffffffff16565b805190915015612cc25780806020019051810190612f3791906139b0565b612cc25760405162461bcd60e51b815260206004820152602a60248201527f5361666545524332303a204552433230206f7065726174696f6e20646964206e6044820152691bdd081cdd58d8d9595960b21b60648201526084016128c8565b60606108ea848460008585600080866001600160a01b03168587604051612fbd91906139f9565b60006040518083038185875af1925050503d8060008114612ffa576040519150601f19603f3d011682016040523d82523d6000602084013e612fff565b606091505b50915091506130108783838761301b565b979650505050505050565b6060831561308a578251600003613083576001600160a01b0385163b6130835760405162461bcd60e51b815260206004820152601d60248201527f416464726573733a2063616c6c20746f206e6f6e2d636f6e747261637400000060448201526064016128c8565b50816108ea565b6108ea838381511561309f5781518083602001fd5b8060405162461bcd60e51b81526004016128c89190613a15565b60405180610140016040528060006001600160801b0316815260200160001515815260200160006001600160a01b0316815260200160006001600160a01b0316815260200160006001600160a01b0316815260200160008152602001600081526020016000815260200160008152602001600081525090565b6040805161012081018252600080825260208201819052918101829052606081018290526080810182905260a0810182905260c0810182905260e0810182905261010081019190915290565b60006020828403121561319057600080fd5b81356001600160e01b0319811681146131a857600080fd5b9392505050565b6001600160a01b03811681146128da57600080fd5b634e487b7160e01b600052604160045260246000fd5b604051601f8201601f1916810167ffffffffffffffff81118282101715613203576132036131c4565b604052919050565b600082601f83011261321c57600080fd5b813567ffffffffffffffff811115613236576132366131c4565b613249601f8201601f19166020016131da565b81815284602083860101111561325e57600080fd5b816020850160208301376000918101602001919091529392505050565b6000806000806080858703121561329157600080fd5b843561329c816131af565b935060208501356132ac816131af565b925060408501359150606085013567ffffffffffffffff8111156132cf57600080fd5b6132db8782880161320b565b91505092959194509250565b6000602082840312156132f957600080fd5b5035919050565b6000806040838503121561331357600080fd5b50508035926020909101359150565b602080825282518282018190526000919060409081850190868401855b828110156133d357815180516001600160801b0316855286810151151587860152858101516001600160a01b03908116878701526060808301518216908701526080808301519091169086015260a0808201519086015260c0808201519086015260e0808201519086015261010080820151908601526101209081015190850152610140909301929085019060010161333f565b5091979650505050505050565b6000806000606084860312156133f557600080fd5b505081359360208301359350604090920135919050565b6000806040838503121561341f57600080fd5b823591506020830135613431816131af565b809150509250929050565b60006020828403121561344e57600080fd5b81356131a8816131af565b6000806000806080858703121561346f57600080fd5b843593506020850135613481816131af565b93969395505050506040820135916060013590565b80151581146128da57600080fd5b80356001600160801b03811681146134bb57600080fd5b919050565b600080600080600080600060e0888a0312156134db57600080fd5b87356134e681613496565b965060208801356134f6816131af565b9550613504604089016134a4565b9450606088013593506080880135925060a0880135915060c0880135613529816131af565b8091505092959891949750929550565b600080600080600080600080610100898b03121561355657600080fd5b883561356181613496565b97506020890135613571816131af565b965061357f60408a016134a4565b9550606089013594506080890135935060a0890135925060c0890135915060e08901356135ab816131af565b809150509295985092959890939650565b600082601f8301126135cd57600080fd5b8135602067ffffffffffffffff8211156135e9576135e96131c4565b8160051b6135f88282016131da565b928352848101820192828101908785111561361257600080fd5b83870192505b8483101561301057823582529183019190830190613618565b600080600080600060a0868803121561364957600080fd5b8535613654816131af565b94506020860135613664816131af565b9350604086013567ffffffffffffffff8082111561368157600080fd5b61368d89838a016135bc565b945060608801359150808211156136a357600080fd5b6136af89838a016135bc565b935060808801359150808211156136c557600080fd5b506136d28882890161320b565b9150509295509295909350565b602080825282518282018190526000919060409081850190868401855b828110156133d357815180516001600160801b039081168652878201511687860152858101511515868601526060808201516001600160a01b039081169187019190915260808083015182169087015260a0808301519091169086015260c0808201519086015260e08082015190860152610100908101519085015261012090930192908501906001016136fc565b600080600080600060a086880312156137a357600080fd5b85356137ae816131af565b945060208601356137be816131af565b93506040860135925060608601359150608086013567ffffffffffffffff8111156137e857600080fd5b6136d28882890161320b565b6000806040838503121561380757600080fd5b8235613812816131af565b91506020830135613431816131af565b6001600160a01b0394851681529290931660208301526040820152606081019190915260a06080820181905260009082015260c00190565b634e487b7160e01b600052601160045260246000fd5b6000828210156138825761388261385a565b500390565b60008160001904831182151516156138a1576138a161385a565b500290565b600082198211156138b9576138b961385a565b500190565b634e487b7160e01b600052603260045260246000fd5b6000600182016138e6576138e661385a565b5060010190565b6000602082840312156138ff57600080fd5b5051919050565b6000806040838503121561391957600080fd5b8251613924816131af565b6020939093015192949293505050565b6001600160a01b0394851681529290931660208301526001600160801b03166040820152606081019190915260a06080820181905260009082015260c00190565b6001600160a01b0393841681529190921660208201526001600160801b03909116604082015260806060820181905260009082015260a00190565b6000602082840312156139c257600080fd5b81516131a881613496565b60005b838110156139e85781810151838201526020016139d0565b83811115612c8c5750506000910152565b60008251613a0b8184602087016139cd565b9190910192915050565b6020815260008251806020840152613a348160408501602087016139cd565b601f01601f1916919091016040019291505056fe2047d1633ff7768462ae07d28cb16e484203bfd6d85ce832494270ebcd9081a2a26469706673582212207bbb69cd31e2ab8036f90c29653ea17cc59cd789e2c3f4c018b3bdda82bdbd2864736f6c634300080f0033",
  "linkReferences": {},
  "deployedLinkReferences": {}
}