{
  "_format": "hh-sol-artifact-1",
  "contractName": "RadesMockCurrency",
  "sourceName": "contracts/RadesMockCurrency.sol",
  "abi": [
    {
      "inputs": [],
      "stateMutability": "nonpayable",
      "type": "constructor"
    },
    {
      "anonymous": false,
      "inputs": [
        {
          "indexed": true,
          "internalType": "address",
          "name": "owner",
          "type": "address"
        },
        {
          "indexed": true,
          "internalType": "address",
          "name": "spender",
          "type": "address"
        },
        {
          "indexed": false,
          "internalType": "uint256",
          "name": "value",
          "type": "uint256"
        }
      ],
      "name": "Approval",
      "type": "event"
    },
    {
      "anonymous": false,
      "inputs": [
        {
          "indexed": true,
          "internalType": "address",
          "name": "delegator",
          "type": "address"
        },
        {
          "indexed": true,
          "internalType": "address",
          "name": "fromDelegate",
          "type": "address"
        },
        {
          "indexed": true,
          "internalType": "address",
          "name": "toDelegate",
          "type": "address"
        }
      ],
      "name": "DelegateChanged",
      "type": "event"
    },
    {
      "anonymous": false,
      "inputs": [
        {
          "indexed": true,
          "internalType": "address",
          "name": "delegate",
          "type": "address"
        },
        {
          "indexed": false,
          "internalType": "uint256",
          "name": "previousBalance",
          "type": "uint256"
        },
        {
          "indexed": false,
          "internalType": "uint256",
          "name": "newBalance",
          "type": "uint256"
        }
      ],
      "name": "DelegateVotesChanged",
      "type": "event"
    },
    {
      "anonymous": false,
      "inputs": [
        {
          "indexed": true,
          "internalType": "address",
          "name": "previousOwner",
          "type": "address"
        },
        {
          "indexed": true,
          "internalType": "address",
          "name": "newOwner",
          "type": "address"
        }
      ],
      "name": "OwnershipTransferred",
      "type": "event"
    },
    {
      "anonymous": false,
      "inputs": [
        {
          "indexed": false,
          "internalType": "address",
          "name": "account",
          "type": "address"
        }
      ],
      "name": "Paused",
      "type": "event"
    },
    {
      "anonymous": false,
      "inputs": [
        {
          "indexed": false,
          "internalType": "uint256",
          "name": "id",
          "type": "uint256"
        }
      ],
      "name": "Snapshot",
      "type": "event"
    },
    {
      "anonymous": false,
      "inputs": [
        {
          "indexed": true,
          "internalType": "address",
          "name": "from",
          "type": "address"
        },
        {
          "indexed": true,
          "internalType": "address",
          "name": "to",
          "type": "address"
        },
        {
          "indexed": false,
          "internalType": "uint256",
          "name": "value",
          "type": "uint256"
        }
      ],
      "name": "Transfer",
      "type": "event"
    },
    {
      "anonymous": false,
      "inputs": [
        {
          "indexed": false,
          "internalType": "address",
          "name": "account",
          "type": "address"
        }
      ],
      "name": "Unpaused",
      "type": "event"
    },
    {
      "inputs": [],
      "name": "DOMAIN_SEPARATOR",
      "outputs": [
        {
          "internalType": "bytes32",
          "name": "",
          "type": "bytes32"
        }
      ],
      "stateMutability": "view",
      "type": "function"
    },
    {
      "inputs": [
        {
          "internalType": "address",
          "name": "owner",
          "type": "address"
        },
        {
          "internalType": "address",
          "name": "spender",
          "type": "address"
        }
      ],
      "name": "allowance",
      "outputs": [
        {
          "internalType": "uint256",
          "name": "",
          "type": "uint256"
        }
      ],
      "stateMutability": "view",
      "type": "function"
    },
    {
      "inputs": [
        {
          "internalType": "address",
          "name": "spender",
          "type": "address"
        },
        {
          "internalType": "uint256",
          "name": "amount",
          "type": "uint256"
        }
      ],
      "name": "approve",
      "outputs": [
        {
          "internalType": "bool",
          "name": "",
          "type": "bool"
        }
      ],
      "stateMutability": "nonpayable",
      "type": "function"
    },
    {
      "inputs": [
        {
          "internalType": "address",
          "name": "account",
          "type": "address"
        }
      ],
      "name": "balanceOf",
      "outputs": [
        {
          "internalType": "uint256",
          "name": "",
          "type": "uint256"
        }
      ],
      "stateMutability": "view",
      "type": "function"
    },
    {
      "inputs": [
        {
          "internalType": "address",
          "name": "account",
          "type": "address"
        },
        {
          "internalType": "uint256",
          "name": "snapshotId",
          "type": "uint256"
        }
      ],
      "name": "balanceOfAt",
      "outputs": [
        {
          "internalType": "uint256",
          "name": "",
          "type": "uint256"
        }
      ],
      "stateMutability": "view",
      "type": "function"
    },
    {
      "inputs": [
        {
          "internalType": "uint256",
          "name": "amount",
          "type": "uint256"
        }
      ],
      "name": "burn",
      "outputs": [],
      "stateMutability": "nonpayable",
      "type": "function"
    },
    {
      "inputs": [
        {
          "internalType": "address",
          "name": "account",
          "type": "address"
        },
        {
          "internalType": "uint256",
          "name": "amount",
          "type": "uint256"
        }
      ],
      "name": "burnFrom",
      "outputs": [],
      "stateMutability": "nonpayable",
      "type": "function"
    },
    {
      "inputs": [
        {
          "internalType": "address",
          "name": "account",
          "type": "address"
        },
        {
          "internalType": "uint32",
          "name": "pos",
          "type": "uint32"
        }
      ],
      "name": "checkpoints",
      "outputs": [
        {
          "components": [
            {
              "internalType": "uint32",
              "name": "fromBlock",
              "type": "uint32"
            },
            {
              "internalType": "uint224",
              "name": "votes",
              "type": "uint224"
            }
          ],
          "internalType": "struct ERC20Votes.Checkpoint",
          "name": "",
          "type": "tuple"
        }
      ],
      "stateMutability": "view",
      "type": "function"
    },
    {
      "inputs": [],
      "name": "decimals",
      "outputs": [
        {
          "internalType": "uint8",
          "name": "",
          "type": "uint8"
        }
      ],
      "stateMutability": "view",
      "type": "function"
    },
    {
      "inputs": [
        {
          "internalType": "address",
          "name": "spender",
          "type": "address"
        },
        {
          "internalType": "uint256",
          "name": "subtractedValue",
          "type": "uint256"
        }
      ],
      "name": "decreaseAllowance",
      "outputs": [
        {
          "internalType": "bool",
          "name": "",
          "type": "bool"
        }
      ],
      "stateMutability": "nonpayable",
      "type": "function"
    },
    {
      "inputs": [
        {
          "internalType": "address",
          "name": "delegatee",
          "type": "address"
        }
      ],
      "name": "delegate",
      "outputs": [],
      "stateMutability": "nonpayable",
      "type": "function"
    },
    {
      "inputs": [
        {
          "internalType": "address",
          "name": "delegatee",
          "type": "address"
        },
        {
          "internalType": "uint256",
          "name": "nonce",
          "type": "uint256"
        },
        {
          "internalType": "uint256",
          "name": "expiry",
          "type": "uint256"
        },
        {
          "internalType": "uint8",
          "name": "v",
          "type": "uint8"
        },
        {
          "internalType": "bytes32",
          "name": "r",
          "type": "bytes32"
        },
        {
          "internalType": "bytes32",
          "name": "s",
          "type": "bytes32"
        }
      ],
      "name": "delegateBySig",
      "outputs": [],
      "stateMutability": "nonpayable",
      "type": "function"
    },
    {
      "inputs": [
        {
          "internalType": "address",
          "name": "account",
          "type": "address"
        }
      ],
      "name": "delegates",
      "outputs": [
        {
          "internalType": "address",
          "name": "",
          "type": "address"
        }
      ],
      "stateMutability": "view",
      "type": "function"
    },
    {
      "inputs": [
        {
          "internalType": "address",
          "name": "token",
          "type": "address"
        },
        {
          "internalType": "uint256",
          "name": "amount",
          "type": "uint256"
        }
      ],
      "name": "flashFee",
      "outputs": [
        {
          "internalType": "uint256",
          "name": "",
          "type": "uint256"
        }
      ],
      "stateMutability": "view",
      "type": "function"
    },
    {
      "inputs": [
        {
          "internalType": "contract IERC3156FlashBorrower",
          "name": "receiver",
          "type": "address"
        },
        {
          "internalType": "address",
          "name": "token",
          "type": "address"
        },
        {
          "internalType": "uint256",
          "name": "amount",
          "type": "uint256"
        },
        {
          "internalType": "bytes",
          "name": "data",
          "type": "bytes"
        }
      ],
      "name": "flashLoan",
      "outputs": [
        {
          "internalType": "bool",
          "name": "",
          "type": "bool"
        }
      ],
      "stateMutability": "nonpayable",
      "type": "function"
    },
    {
      "inputs": [
        {
          "internalType": "uint256",
          "name": "blockNumber",
          "type": "uint256"
        }
      ],
      "name": "getPastTotalSupply",
      "outputs": [
        {
          "internalType": "uint256",
          "name": "",
          "type": "uint256"
        }
      ],
      "stateMutability": "view",
      "type": "function"
    },
    {
      "inputs": [
        {
          "internalType": "address",
          "name": "account",
          "type": "address"
        },
        {
          "internalType": "uint256",
          "name": "blockNumber",
          "type": "uint256"
        }
      ],
      "name": "getPastVotes",
      "outputs": [
        {
          "internalType": "uint256",
          "name": "",
          "type": "uint256"
        }
      ],
      "stateMutability": "view",
      "type": "function"
    },
    {
      "inputs": [
        {
          "internalType": "address",
          "name": "account",
          "type": "address"
        }
      ],
      "name": "getVotes",
      "outputs": [
        {
          "internalType": "uint256",
          "name": "",
          "type": "uint256"
        }
      ],
      "stateMutability": "view",
      "type": "function"
    },
    {
      "inputs": [
        {
          "internalType": "address",
          "name": "spender",
          "type": "address"
        },
        {
          "internalType": "uint256",
          "name": "addedValue",
          "type": "uint256"
        }
      ],
      "name": "increaseAllowance",
      "outputs": [
        {
          "internalType": "bool",
          "name": "",
          "type": "bool"
        }
      ],
      "stateMutability": "nonpayable",
      "type": "function"
    },
    {
      "inputs": [
        {
          "internalType": "address",
          "name": "token",
          "type": "address"
        }
      ],
      "name": "maxFlashLoan",
      "outputs": [
        {
          "internalType": "uint256",
          "name": "",
          "type": "uint256"
        }
      ],
      "stateMutability": "view",
      "type": "function"
    },
    {
      "inputs": [
        {
          "internalType": "address",
          "name": "to",
          "type": "address"
        },
        {
          "internalType": "uint256",
          "name": "amount",
          "type": "uint256"
        }
      ],
      "name": "mint",
      "outputs": [],
      "stateMutability": "nonpayable",
      "type": "function"
    },
    {
      "inputs": [],
      "name": "name",
      "outputs": [
        {
          "internalType": "string",
          "name": "",
          "type": "string"
        }
      ],
      "stateMutability": "view",
      "type": "function"
    },
    {
      "inputs": [
        {
          "internalType": "address",
          "name": "owner",
          "type": "address"
        }
      ],
      "name": "nonces",
      "outputs": [
        {
          "internalType": "uint256",
          "name": "",
          "type": "uint256"
        }
      ],
      "stateMutability": "view",
      "type": "function"
    },
    {
      "inputs": [
        {
          "internalType": "address",
          "name": "account",
          "type": "address"
        }
      ],
      "name": "numCheckpoints",
      "outputs": [
        {
          "internalType": "uint32",
          "name": "",
          "type": "uint32"
        }
      ],
      "stateMutability": "view",
      "type": "function"
    },
    {
      "inputs": [],
      "name": "owner",
      "outputs": [
        {
          "internalType": "address",
          "name": "",
          "type": "address"
        }
      ],
      "stateMutability": "view",
      "type": "function"
    },
    {
      "inputs": [],
      "name": "pause",
      "outputs": [],
      "stateMutability": "nonpayable",
      "type": "function"
    },
    {
      "inputs": [],
      "name": "paused",
      "outputs": [
        {
          "internalType": "bool",
          "name": "",
          "type": "bool"
        }
      ],
      "stateMutability": "view",
      "type": "function"
    },
    {
      "inputs": [
        {
          "internalType": "address",
          "name": "owner",
          "type": "address"
        },
        {
          "internalType": "address",
          "name": "spender",
          "type": "address"
        },
        {
          "internalType": "uint256",
          "name": "value",
          "type": "uint256"
        },
        {
          "internalType": "uint256",
          "name": "deadline",
          "type": "uint256"
        },
        {
          "internalType": "uint8",
          "name": "v",
          "type": "uint8"
        },
        {
          "internalType": "bytes32",
          "name": "r",
          "type": "bytes32"
        },
        {
          "internalType": "bytes32",
          "name": "s",
          "type": "bytes32"
        }
      ],
      "name": "permit",
      "outputs": [],
      "stateMutability": "nonpayable",
      "type": "function"
    },
    {
      "inputs": [],
      "name": "renounceOwnership",
      "outputs": [],
      "stateMutability": "nonpayable",
      "type": "function"
    },
    {
      "inputs": [],
      "name": "snapshot",
      "outputs": [],
      "stateMutability": "nonpayable",
      "type": "function"
    },
    {
      "inputs": [],
      "name": "symbol",
      "outputs": [
        {
          "internalType": "string",
          "name": "",
          "type": "string"
        }
      ],
      "stateMutability": "view",
      "type": "function"
    },
    {
      "inputs": [],
      "name": "totalSupply",
      "outputs": [
        {
          "internalType": "uint256",
          "name": "",
          "type": "uint256"
        }
      ],
      "stateMutability": "view",
      "type": "function"
    },
    {
      "inputs": [
        {
          "internalType": "uint256",
          "name": "snapshotId",
          "type": "uint256"
        }
      ],
      "name": "totalSupplyAt",
      "outputs": [
        {
          "internalType": "uint256",
          "name": "",
          "type": "uint256"
        }
      ],
      "stateMutability": "view",
      "type": "function"
    },
    {
      "inputs": [
        {
          "internalType": "address",
          "name": "to",
          "type": "address"
        },
        {
          "internalType": "uint256",
          "name": "amount",
          "type": "uint256"
        }
      ],
      "name": "transfer",
      "outputs": [
        {
          "internalType": "bool",
          "name": "",
          "type": "bool"
        }
      ],
      "stateMutability": "nonpayable",
      "type": "function"
    },
    {
      "inputs": [
        {
          "internalType": "address",
          "name": "from",
          "type": "address"
        },
        {
          "internalType": "address",
          "name": "to",
          "type": "address"
        },
        {
          "internalType": "uint256",
          "name": "amount",
          "type": "uint256"
        }
      ],
      "name": "transferFrom",
      "outputs": [
        {
          "internalType": "bool",
          "name": "",
          "type": "bool"
        }
      ],
      "stateMutability": "nonpayable",
      "type": "function"
    },
    {
      "inputs": [
        {
          "internalType": "address",
          "name": "newOwner",
          "type": "address"
        }
      ],
      "name": "transferOwnership",
      "outputs": [],
      "stateMutability": "nonpayable",
      "type": "function"
    },
    {
      "inputs": [],
      "name": "unpause",
      "outputs": [],
      "stateMutability": "nonpayable",
      "type": "function"
    }
  ],
  "bytecode": "0x6101406040523480156200001257600080fd5b5060405180604001604052806005815260200164526164657360d81b81525080604051806040016040528060018152602001603160f81b8152506040518060400160405280600d81526020016c526164657343757272656e637960981b815250604051806040016040528060048152602001635241444360e01b8152508160039081620000a091906200026a565b506004620000af82826200026a565b505050620000cc620000c66200016f60201b60201c565b62000173565b6009805460ff60a01b19169055815160209283012081519183019190912060e08290526101008190524660a0818152604080517f8b73c3c69bb8fe3d512ecc4cf759cc79239f7b179b0ffacaa9a75d522b39400f818801819052818301969096526060810194909452608080850193909352308483018190528151808603909301835260c094850190915281519190950120905291909152610120525062000336565b3390565b600980546001600160a01b038381166001600160a01b0319831681179093556040519116919082907f8be0079c531659141344cd1fd0a4f28419497f9722a3daafe3b4186f6b6457e090600090a35050565b634e487b7160e01b600052604160045260246000fd5b600181811c90821680620001f057607f821691505b6020821081036200021157634e487b7160e01b600052602260045260246000fd5b50919050565b601f8211156200026557600081815260208120601f850160051c81016020861015620002405750805b601f850160051c820191505b8181101562000261578281556001016200024c565b5050505b505050565b81516001600160401b03811115620002865762000286620001c5565b6200029e81620002978454620001db565b8462000217565b602080601f831160018114620002d65760008415620002bd5750858301515b600019600386901b1c1916600185901b17855562000261565b600085815260208120601f198616915b828110156200030757888601518255948401946001909101908401620002e6565b5085821015620003265787850151600019600388901b60f8161c191681555b5050505050600190811b01905550565b60805160a05160c05160e0516101005161012051612a0a620003866000396000611392015260006113e1015260006113bc015260006113150152600061133f015260006113690152612a0a6000f3fe608060405234801561001057600080fd5b50600436106102275760003560e01c806370a0823111610130578063981b24d0116100b8578063d505accf1161007c578063d505accf146104bb578063d9d98ce4146104ce578063dd62ed3e146104e1578063f1127ed8146104f4578063f2fde38b1461053157600080fd5b8063981b24d01461045c5780639ab24eb01461046f578063a457c2d714610482578063a9059cbb14610495578063c3cda520146104a857600080fd5b80638456cb59116100ff5780638456cb59146104205780638da5cb5b146104285780638e539e8c1461043957806395d89b411461044c5780639711715a1461045457600080fd5b806370a08231146103c9578063715018a6146103f257806379cc6790146103fa5780637ecebe001461040d57600080fd5b806340c10f19116101b35780635c19a95c116101825780635c19a95c146103565780635c975abb146103695780635cffe9de1461037b578063613255ab1461038e5780636fcfff45146103a157600080fd5b806340c10f19146102d957806342966c68146102ec5780634ee2cd7e146102ff578063587cde1e1461031257600080fd5b8063313ce567116101fa578063313ce567146102925780633644e515146102a157806339509351146102a95780633a46b1a8146102bc5780633f4ba83a146102cf57600080fd5b806306fdde031461022c578063095ea7b31461024a57806318160ddd1461026d57806323b872dd1461027f575b600080fd5b610234610544565b604051610241919061258d565b60405180910390f35b61025d6102583660046125f7565b6105d6565b6040519015158152602001610241565b6002545b604051908152602001610241565b61025d61028d366004612623565b6105f0565b60405160128152602001610241565b610271610614565b61025d6102b73660046125f7565b610623565b6102716102ca3660046125f7565b610645565b6102d76106c4565b005b6102d76102e73660046125f7565b6106d6565b6102d76102fa366004612664565b6106ec565b61027161030d3660046125f7565b6106f9565b61033e61032036600461267d565b6001600160a01b039081166000908152600c60205260409020541690565b6040516001600160a01b039091168152602001610241565b6102d761036436600461267d565b610752565b600954600160a01b900460ff1661025d565b61025d61038936600461269a565b61075c565b61027161039c36600461267d565b610940565b6103b46103af36600461267d565b610968565b60405163ffffffff9091168152602001610241565b6102716103d736600461267d565b6001600160a01b031660009081526020819052604090205490565b6102d761098a565b6102d76104083660046125f7565b61099c565b61027161041b36600461267d565b6109b1565b6102d76109cf565b6009546001600160a01b031661033e565b610271610447366004612664565b6109df565b610234610a3b565b6102d7610a4a565b61027161046a366004612664565b610a5a565b61027161047d36600461267d565b610a85565b61025d6104903660046125f7565b610b0c565b61025d6104a33660046125f7565b610b87565b6102d76104b636600461274a565b610b95565b6102d76104c93660046127a4565b610ccb565b6102716104dc3660046125f7565b610e2f565b6102716104ef366004612812565b610e90565b61050761050236600461284b565b610ebb565b60408051825163ffffffff1681526020928301516001600160e01b03169281019290925201610241565b6102d761053f36600461267d565b610f3f565b60606003805461055390612882565b80601f016020809104026020016040519081016040528092919081815260200182805461057f90612882565b80156105cc5780601f106105a1576101008083540402835291602001916105cc565b820191906000526020600020905b8154815290600101906020018083116105af57829003601f168201915b5050505050905090565b6000336105e4818585610fb5565b60019150505b92915050565b6000336105fe8582856110d9565b610609858585611153565b506001949350505050565b600061061e611308565b905090565b6000336105e48185856106368383610e90565b61064091906128cc565b610fb5565b600043821061069b5760405162461bcd60e51b815260206004820152601f60248201527f4552433230566f7465733a20626c6f636b206e6f7420796574206d696e65640060448201526064015b60405180910390fd5b6001600160a01b0383166000908152600d602052604090206106bd908361142f565b9392505050565b6106cc611526565b6106d4611580565b565b6106de611526565b6106e882826115d5565b5050565b6106f633826115df565b50565b6001600160a01b0382166000908152600560205260408120819081906107209085906115e9565b9150915081610747576001600160a01b038516600090815260208190526040902054610749565b805b95945050505050565b6106f633826116df565b600061076785610940565b8411156107ca5760405162461bcd60e51b815260206004820152602b60248201527f4552433230466c6173684d696e743a20616d6f756e742065786365656473206d60448201526a30bc233630b9b42637b0b760a91b6064820152608401610692565b60006107d68686610e2f565b90506107e287866115d5565b6040516323e30c8b60e01b81527f439148f0bbc682ca079e46d6e2c2f0c1e3b820f1a291b069d8882abf8cf18dd9906001600160a01b038916906323e30c8b9061083a9033908b908b9088908c908c906004016128e4565b6020604051808303816000875af1158015610859573d6000803e3d6000fd5b505050506040513d601f19601f8201168201806040525081019061087d9190612940565b146108d65760405162461bcd60e51b8152602060048201526024808201527f4552433230466c6173684d696e743a20696e76616c69642072657475726e2076604482015263616c756560e01b6064820152608401610692565b60006108ec88306108e7858a6128cc565b6110d9565b81158061090057506001600160a01b038116155b1561091d576109188861091384896128cc565b6115df565b610932565b61092788876115df565b610932888284611153565b506001979650505050505050565b60006001600160a01b03821630146109595760006105ea565b6002546105ea90600019612959565b6001600160a01b0381166000908152600d60205260408120546105ea90611758565b610992611526565b6106d460006117c1565b6109a78233836110d9565b6106e882826115df565b6001600160a01b0381166000908152600a60205260408120546105ea565b6109d7611526565b6106d4611813565b6000438210610a305760405162461bcd60e51b815260206004820152601f60248201527f4552433230566f7465733a20626c6f636b206e6f7420796574206d696e6564006044820152606401610692565b6105ea600e8361142f565b60606004805461055390612882565b610a52611526565b6106f6611856565b6000806000610a6a8460066115e9565b9150915081610a7b57600254610a7d565b805b949350505050565b6001600160a01b0381166000908152600d60205260408120548015610af9576001600160a01b0383166000908152600d60205260409020610ac7600183612959565b81548110610ad757610ad7612970565b60009182526020909120015464010000000090046001600160e01b0316610afc565b60005b6001600160e01b03169392505050565b60003381610b1a8286610e90565b905083811015610b7a5760405162461bcd60e51b815260206004820152602560248201527f45524332303a2064656372656173656420616c6c6f77616e63652062656c6f77604482015264207a65726f60d81b6064820152608401610692565b6106098286868403610fb5565b6000336105e4818585611153565b83421115610be55760405162461bcd60e51b815260206004820152601d60248201527f4552433230566f7465733a207369676e617475726520657870697265640000006044820152606401610692565b604080517fe48329057bfd03d55e49b547132e39cffd9c1820ad7b9d4c5307691425d15adf60208201526001600160a01b038816918101919091526060810186905260808101859052600090610c5f90610c579060a001604051602081830303815290604052805190602001206118b0565b8585856118fe565b9050610c6a81611926565b8614610cb85760405162461bcd60e51b815260206004820152601960248201527f4552433230566f7465733a20696e76616c6964206e6f6e6365000000000000006044820152606401610692565b610cc281886116df565b50505050505050565b83421115610d1b5760405162461bcd60e51b815260206004820152601d60248201527f45524332305065726d69743a206578706972656420646561646c696e650000006044820152606401610692565b60007f6e71edae12b1b97f4d1f60370fef10105fa2faae0126114a169c64845d6126c9888888610d4a8c611926565b6040805160208101969096526001600160a01b0394851690860152929091166060840152608083015260a082015260c0810186905260e0016040516020818303038152906040528051906020012090506000610da5826118b0565b90506000610db5828787876118fe565b9050896001600160a01b0316816001600160a01b031614610e185760405162461bcd60e51b815260206004820152601e60248201527f45524332305065726d69743a20696e76616c6964207369676e617475726500006044820152606401610692565b610e238a8a8a610fb5565b50505050505050505050565b60006001600160a01b0383163014610e895760405162461bcd60e51b815260206004820152601b60248201527f4552433230466c6173684d696e743a2077726f6e6720746f6b656e00000000006044820152606401610692565b60006106bd565b6001600160a01b03918216600090815260016020908152604080832093909416825291909152205490565b60408051808201909152600080825260208201526001600160a01b0383166000908152600d60205260409020805463ffffffff8416908110610eff57610eff612970565b60009182526020918290206040805180820190915291015463ffffffff8116825264010000000090046001600160e01b0316918101919091529392505050565b610f47611526565b6001600160a01b038116610fac5760405162461bcd60e51b815260206004820152602660248201527f4f776e61626c653a206e6577206f776e657220697320746865207a65726f206160448201526564647265737360d01b6064820152608401610692565b6106f6816117c1565b6001600160a01b0383166110175760405162461bcd60e51b8152602060048201526024808201527f45524332303a20617070726f76652066726f6d20746865207a65726f206164646044820152637265737360e01b6064820152608401610692565b6001600160a01b0382166110785760405162461bcd60e51b815260206004820152602260248201527f45524332303a20617070726f766520746f20746865207a65726f206164647265604482015261737360f01b6064820152608401610692565b6001600160a01b0383811660008181526001602090815260408083209487168084529482529182902085905590518481527f8c5be1e5ebec7d5bd14f71427d1e84f3dd0314c0f7b2291e5b200ac8c7c3b925910160405180910390a3505050565b60006110e58484610e90565b9050600019811461114d57818110156111405760405162461bcd60e51b815260206004820152601d60248201527f45524332303a20696e73756666696369656e7420616c6c6f77616e63650000006044820152606401610692565b61114d8484848403610fb5565b50505050565b6001600160a01b0383166111b75760405162461bcd60e51b815260206004820152602560248201527f45524332303a207472616e736665722066726f6d20746865207a65726f206164604482015264647265737360d81b6064820152608401610692565b6001600160a01b0382166112195760405162461bcd60e51b815260206004820152602360248201527f45524332303a207472616e7366657220746f20746865207a65726f206164647260448201526265737360e81b6064820152608401610692565b61122483838361194e565b6001600160a01b0383166000908152602081905260409020548181101561129c5760405162461bcd60e51b815260206004820152602660248201527f45524332303a207472616e7366657220616d6f756e7420657863656564732062604482015265616c616e636560d01b6064820152608401610692565b6001600160a01b03848116600081815260208181526040808320878703905593871680835291849020805487019055925185815290927fddf252ad1be2c89b69c2b068fc378daa952ba7f163c4a11628f55a4df523b3ef910160405180910390a361114d848484611966565b6000306001600160a01b037f00000000000000000000000000000000000000000000000000000000000000001614801561136157507f000000000000000000000000000000000000000000000000000000000000000046145b1561138b57507f000000000000000000000000000000000000000000000000000000000000000090565b50604080517f00000000000000000000000000000000000000000000000000000000000000006020808301919091527f0000000000000000000000000000000000000000000000000000000000000000828401527f000000000000000000000000000000000000000000000000000000000000000060608301524660808301523060a0808401919091528351808403909101815260c0909201909252805191012090565b81546000908181600581111561148957600061144a84611971565b6114549085612959565b600088815260209020909150869082015463ffffffff16111561147957809150611487565b6114848160016128cc565b92505b505b808210156114d657600061149d8383611a59565b600088815260209020909150869082015463ffffffff1611156114c2578091506114d0565b6114cd8160016128cc565b92505b50611489565b8015611510576114f9866114eb600184612959565b600091825260209091200190565b5464010000000090046001600160e01b0316611513565b60005b6001600160e01b03169695505050505050565b6009546001600160a01b031633146106d45760405162461bcd60e51b815260206004820181905260248201527f4f776e61626c653a2063616c6c6572206973206e6f7420746865206f776e65726044820152606401610692565b611588611a74565b6009805460ff60a01b191690557f5db9ee0a495bf2e6ff9c91a7834c1ba4fdd244a5e8aa4e537bd38aeae4b073aa335b6040516001600160a01b03909116815260200160405180910390a1565b6106e88282611ac4565b6106e88282611b4e565b600080600084116116355760405162461bcd60e51b815260206004820152601660248201527504552433230536e617073686f743a20696420697320360541b6044820152606401610692565b61163d611b66565b84111561168c5760405162461bcd60e51b815260206004820152601d60248201527f4552433230536e617073686f743a206e6f6e6578697374656e742069640000006044820152606401610692565b60006116988486611b71565b845490915081036116b05760008092509250506116d8565b60018460010182815481106116c7576116c7612970565b906000526020600020015492509250505b9250929050565b6001600160a01b038281166000818152600c60208181526040808420805485845282862054949093528787166001600160a01b03198416811790915590519190951694919391928592917f3134e8a2e6d97e929a7e54011ea5485d7d196dd5f0ba4d4ef95803e8e3fc257f9190a461114d828483611c10565b600063ffffffff8211156117bd5760405162461bcd60e51b815260206004820152602660248201527f53616665436173743a2076616c756520646f65736e27742066697420696e203360448201526532206269747360d01b6064820152608401610692565b5090565b600980546001600160a01b038381166001600160a01b0319831681179093556040519116919082907f8be0079c531659141344cd1fd0a4f28419497f9722a3daafe3b4186f6b6457e090600090a35050565b61181b611d4d565b6009805460ff60a01b1916600160a01b1790557f62e78cea01bee320cd4e420270b5ea74000d11b0c9f74754ebdbfc544b05a2586115b83390565b6000611866600880546001019055565b6000611870611b66565b90507f8030e83b04d87bef53480e26263266d6ca66863aa8506aca6f2559d18aa1cb67816040516118a391815260200190565b60405180910390a1919050565b60006105ea6118bd611308565b8360405161190160f01b6020820152602281018390526042810182905260009060620160405160208183030381529060405280519060200120905092915050565b600080600061190f87878787611d9a565b9150915061191c81611e5e565b5095945050505050565b6001600160a01b0381166000908152600a602052604090208054600181018255905b50919050565b611956611d4d565b611961838383611fa8565b505050565b611961838383611ff0565b60008160000361198357506000919050565b6000600161199084612022565b901c6001901b905060018184816119a9576119a9612986565b048201901c905060018184816119c1576119c1612986565b048201901c905060018184816119d9576119d9612986565b048201901c905060018184816119f1576119f1612986565b048201901c90506001818481611a0957611a09612986565b048201901c90506001818481611a2157611a21612986565b048201901c90506001818481611a3957611a39612986565b048201901c90506106bd81828581611a5357611a53612986565b046120b6565b6000611a68600284841861299c565b6106bd908484166128cc565b600954600160a01b900460ff166106d45760405162461bcd60e51b815260206004820152601460248201527314185d5cd8589b194e881b9bdd081c185d5cd95960621b6044820152606401610692565b611ace82826120cc565b6002546001600160e01b031015611b405760405162461bcd60e51b815260206004820152603060248201527f4552433230566f7465733a20746f74616c20737570706c79207269736b73206f60448201526f766572666c6f77696e6720766f74657360801b6064820152608401610692565b61114d600e61219f836121ab565b611b5882826122ff565b61114d600e612444836121ab565b600061061e60085490565b81546000908103611b84575060006105ea565b82546000905b80821015611bd1576000611b9e8383611a59565b60008781526020902090915085908201541115611bbd57809150611bcb565b611bc88160016128cc565b92505b50611b8a565b600082118015611bef575083611bec866114eb600186612959565b54145b15611c0857611bff600183612959565b925050506105ea565b5090506105ea565b816001600160a01b0316836001600160a01b031614158015611c325750600081115b15611961576001600160a01b03831615611cc0576001600160a01b0383166000908152600d602052604081208190611c6d90612444856121ab565b91509150846001600160a01b03167fdec2bacdd2f05b59de34da9b523dff8be42e5e38e818c82fdb0bae774387a7248383604051611cb5929190918252602082015260400190565b60405180910390a250505b6001600160a01b03821615611961576001600160a01b0382166000908152600d602052604081208190611cf69061219f856121ab565b91509150836001600160a01b03167fdec2bacdd2f05b59de34da9b523dff8be42e5e38e818c82fdb0bae774387a7248383604051611d3e929190918252602082015260400190565b60405180910390a25050505050565b600954600160a01b900460ff16156106d45760405162461bcd60e51b815260206004820152601060248201526f14185d5cd8589b194e881c185d5cd95960821b6044820152606401610692565b6000807f7fffffffffffffffffffffffffffffff5d576e7357a4501ddfe92f46681b20a0831115611dd15750600090506003611e55565b6040805160008082526020820180845289905260ff881692820192909252606081018690526080810185905260019060a0016020604051602081039080840390855afa158015611e25573d6000803e3d6000fd5b5050604051601f1901519150506001600160a01b038116611e4e57600060019250925050611e55565b9150600090505b94509492505050565b6000816004811115611e7257611e726129be565b03611e7a5750565b6001816004811115611e8e57611e8e6129be565b03611edb5760405162461bcd60e51b815260206004820152601860248201527f45434453413a20696e76616c6964207369676e617475726500000000000000006044820152606401610692565b6002816004811115611eef57611eef6129be565b03611f3c5760405162461bcd60e51b815260206004820152601f60248201527f45434453413a20696e76616c6964207369676e6174757265206c656e677468006044820152606401610692565b6003816004811115611f5057611f506129be565b036106f65760405162461bcd60e51b815260206004820152602260248201527f45434453413a20696e76616c6964207369676e6174757265202773272076616c604482015261756560f01b6064820152608401610692565b6001600160a01b038316611fc757611fbf82612450565b611961612482565b6001600160a01b038216611fde57611fbf83612450565b611fe783612450565b61196182612450565b6001600160a01b038381166000908152600c602052604080822054858416835291205461196192918216911683611c10565b600080608083901c1561203757608092831c92015b604083901c1561204957604092831c92015b602083901c1561205b57602092831c92015b601083901c1561206d57601092831c92015b600883901c1561207f57600892831c92015b600483901c1561209157600492831c92015b600283901c156120a357600292831c92015b600183901c156105ea5760010192915050565b60008183106120c557816106bd565b5090919050565b6001600160a01b0382166121225760405162461bcd60e51b815260206004820152601f60248201527f45524332303a206d696e7420746f20746865207a65726f2061646472657373006044820152606401610692565b61212e6000838361194e565b806002600082825461214091906128cc565b90915550506001600160a01b038216600081815260208181526040808320805486019055518481527fddf252ad1be2c89b69c2b068fc378daa952ba7f163c4a11628f55a4df523b3ef910160405180910390a36106e860008383611966565b60006106bd82846128cc565b825460009081908181156121f8576121c8876114eb600185612959565b60408051808201909152905463ffffffff8116825264010000000090046001600160e01b0316602082015261220d565b60408051808201909152600080825260208201525b905080602001516001600160e01b0316935061222d84868863ffffffff16565b92506000821180156122455750805163ffffffff1643145b1561228a5761225383612490565b612262886114eb600186612959565b80546001600160e01b03929092166401000000000263ffffffff9092169190911790556122f5565b86604051806040016040528061229f43611758565b63ffffffff1681526020016122b386612490565b6001600160e01b0390811690915282546001810184556000938452602093849020835194909301519091166401000000000263ffffffff909316929092179101555b5050935093915050565b6001600160a01b03821661235f5760405162461bcd60e51b815260206004820152602160248201527f45524332303a206275726e2066726f6d20746865207a65726f206164647265736044820152607360f81b6064820152608401610692565b61236b8260008361194e565b6001600160a01b038216600090815260208190526040902054818110156123df5760405162461bcd60e51b815260206004820152602260248201527f45524332303a206275726e20616d6f756e7420657863656564732062616c616e604482015261636560f01b6064820152608401610692565b6001600160a01b0383166000818152602081815260408083208686039055600280548790039055518581529192917fddf252ad1be2c89b69c2b068fc378daa952ba7f163c4a11628f55a4df523b3ef910160405180910390a361196183600084611966565b60006106bd8284612959565b6001600160a01b038116600090815260056020908152604080832091839052909120546106f691906124f9565b6124f9565b6106d4600661247d60025490565b60006001600160e01b038211156117bd5760405162461bcd60e51b815260206004820152602760248201527f53616665436173743a2076616c756520646f65736e27742066697420696e20326044820152663234206269747360c81b6064820152608401610692565b6000612503611b66565b90508061250f84612543565b1015611961578254600180820185556000858152602080822090930193909355938401805494850181558252902090910155565b8054600090810361255657506000919050565b8154829061256690600190612959565b8154811061257657612576612970565b90600052602060002001549050919050565b919050565b600060208083528351808285015260005b818110156125ba5785810183015185820160400152820161259e565b818111156125cc576000604083870101525b50601f01601f1916929092016040019392505050565b6001600160a01b03811681146106f657600080fd5b6000806040838503121561260a57600080fd5b8235612615816125e2565b946020939093013593505050565b60008060006060848603121561263857600080fd5b8335612643816125e2565b92506020840135612653816125e2565b929592945050506040919091013590565b60006020828403121561267657600080fd5b5035919050565b60006020828403121561268f57600080fd5b81356106bd816125e2565b6000806000806000608086880312156126b257600080fd5b85356126bd816125e2565b945060208601356126cd816125e2565b935060408601359250606086013567ffffffffffffffff808211156126f157600080fd5b818801915088601f83011261270557600080fd5b81358181111561271457600080fd5b89602082850101111561272657600080fd5b9699959850939650602001949392505050565b803560ff8116811461258857600080fd5b60008060008060008060c0878903121561276357600080fd5b863561276e816125e2565b9550602087013594506040870135935061278a60608801612739565b92506080870135915060a087013590509295509295509295565b600080600080600080600060e0888a0312156127bf57600080fd5b87356127ca816125e2565b965060208801356127da816125e2565b955060408801359450606088013593506127f660808901612739565b925060a0880135915060c0880135905092959891949750929550565b6000806040838503121561282557600080fd5b8235612830816125e2565b91506020830135612840816125e2565b809150509250929050565b6000806040838503121561285e57600080fd5b8235612869816125e2565b9150602083013563ffffffff8116811461284057600080fd5b600181811c9082168061289657607f821691505b60208210810361194857634e487b7160e01b600052602260045260246000fd5b634e487b7160e01b600052601160045260246000fd5b600082198211156128df576128df6128b6565b500190565b6001600160a01b03878116825286166020820152604081018590526060810184905260a06080820181905281018290526000828460c0840137600060c0848401015260c0601f19601f8501168301019050979650505050505050565b60006020828403121561295257600080fd5b5051919050565b60008282101561296b5761296b6128b6565b500390565b634e487b7160e01b600052603260045260246000fd5b634e487b7160e01b600052601260045260246000fd5b6000826129b957634e487b7160e01b600052601260045260246000fd5b500490565b634e487b7160e01b600052602160045260246000fdfea26469706673582212203d3ff0b3b1ca47734cdd490795de253faf0ed22df3d113ca70b330f4bd86068464736f6c634300080f0033",
  "linkReferences": {},
  "deployedLinkReferences": {}
}